:020000040000FA
:100000002729A501A400B3172730A300103014201E
:100010000330A300E8301420A30164301420A301AE
:100020000A30142024081F28A2002508A100240853
:10003000A000F0202008031DB313B31B0800303EBE
:10004000A600360884000930A70003103020A60C53
:10005000A70B2628031430200330A100E830A12884
:100060008413B31D3F2800083404331D3406800078
:10007000841700083404031C340680004A28000852
:100080003404031C34063319340680008417340901
:1000900080054A2800308A00330D0639A000572019
:1000A000A10000308A00200A57200000A1285B3EF2
:1000B00003188A0A82000134713403341134003485
:1000C00038340C34D5340830A6003708840035089D
:1000D00033198A20331D8C20360884008417340994
:1000E00080052608031922293318BF20360884000A
:1000F000A10CA00C00083404031C340680008320EB
:10010000A60B7628222937088400350880060000CF
:100110008006080080048F28FF3A80059028FF3A67
:10012000841780052229A301A200FF30A207031C27
:10013000A307031C22290330A100DF30A12095284A
:10014000A101E83EA000A109FC30031CAA28A007D9
:100150000318A728A0076400A10FA7282018B0281B
:10016000A01CB4280000B4280800013EA7000A30F3
:10017000A200A301F020A70BBA2824080800A201BE
:10018000A301C628A10CA00CA20DA30DFF3E0318CD
:10019000C2282308A1002208A00022290310A00DD4
:1001A000A10DFF3E0318CE2820082229A20001300D
:1001B000D928A80023082102031DE02822082002D4
:1001C000043003180130031902302805031DFF30E5
:1001D00022290038031DFF300405031DFF302229AA
:1001E000A501A4011030A600210DA40DA50D220823
:1001F000A4022308031C230FA502031806292208C2
:10020000A40723080318230FA5070310A00DA10DB1
:10021000A60BF428200822291030A800A101A00173
:10022000A70CA60C031C1A292208A00723080318F0
:10023000230FA107A10CA00CA50CA40CA80B10293E
:1002400024082229831303138312640008008316F1
:10025000851511130711051183121F1483161F171B
:100260009F121F1683121F139F171910991019112F
:10027000831605141114851491148715911705160A
:10028000911507141116851283128516831685128F
:10029000831207118316071183120330A300E8307D
:1002A0008A0194200130E00064008A11851D5D29D7
:1002B00005308A0193208A01542912308A01932043
:1002C000C8308A0193201030ED001F129F111F11BA
:1002D00001308A0193208A11D4244208A0004308E7
:1002E000A1000430A200A3018A01F020C40021086B
:1002F000C5001F129F111F1501308A0193208A111A
:10030000D4244208A0004308A1000430A200A301A5
:100310008A01F020C6002108C7001F169F151F156F
:1003200001308A0193208A11D4244208A000430896
:10033000A1000430A200A3018A01F020C800210816
:10034000C9001F129F151F1501308A0193208A11C1
:10035000D4244208A0004308A1000430A200A30155
:100360008A01F020CA002108CB0064006008013C2B
:100370008A11031D052A0930EB000430EA008A11B6
:10038000012564008A11E61CE929A6010130A700B5
:100390003808A200A3018A010C21CE002508CF0055
:1003A00039084E07C4004F080318013EC500A601D6
:1003B0000130A7003A08A200A3018A010C21CE0057
:1003C0002508CF003B084E07C6004F080318013E22
:1003D000C7005730CC000430CD004408A0004508C9
:1003E000A1001030A200A3018A01F020C40021085E
:1003F000C5004608A0004708A1001030A200A301D4
:100400008A01F020C6002108C70064006008023C91
:100410008A11031D702A0930EB000430EA008A11AA
:10042000012564008A11E61C272AA6010130A700D5
:100430003808A200A3018A010C21CE002508CF00B4
:1004400039084E07C4004F080318013EC5000730A5
:10045000EB000830EA008A11012564008A11E61CCD
:10046000432AA6010130A7003A08A200A3018A018D
:100470000C21CE002508CF003B084E07C6004F08D0
:100480000318013EC7000330EB000830EA008A1170
:10049000012564008A11E61C5F2AA6010130A7002D
:1004A0003C08A200A3018A010C21CE002508CF0040
:1004B0003D084E07C8004F080318013EC9005830D8
:1004C000CC000430CD004408A0004508A100103045
:1004D000A200A3018A01F020C4002108C500E001A8
:1004E000E00AE830CC0703300318013ECD0744088A
:1004F000A0004508A10003308A01B520E5004408AA
:10050000A0004508A10002308A01B520E40044089B
:10051000A0004508A10001308A01B520E30044088D
:10052000A0004508A10000308A01B520E2004C0877
:10053000A0004D08A10003308A01B520E100650844
:10054000A600A7011030A2002730A3008A010C21C9
:10055000CE002508CF001030CE0727300318013E0B
:10056000CF076408A600A701E830A2000330A3006B
:100570008A010C21D0002508D1004E08D0074F0871
:100580000318013ED1076308A600A7016430A2004A
:10059000A3018A010C21D2002508D3005008D207FC
:1005A00051080318013ED3076208A600A7010A30CC
:1005B000A200A3018A010C21D4002508D50052080D
:1005C000D40753080318013ED50761085407D60025
:1005D00055080318013ED7004608A0004708A100AF
:1005E00003308A01B520E5004608A0004708A100B5
:1005F00002308A01B520E4004608A0004708A100A7
:1006000001308A01B520E3004608A0004708A10098
:1006100000308A01B520E2004C08A0004D08A1007E
:1006200002308A01B520E1006508A600A70110305C
:10063000A2002730A3008A010C21CE002508CF009C
:100640001030CE0727300318013ECF076408A600FC
:10065000A701E830A2000330A3008A010C21D000DA
:100660002508D1004E08D0074F080318013ED107D6
:100670006308A600A7016430A200A3018A010C212F
:10068000D2002508D3005008D20751080318013EB4
:10069000D3076208A600A7010A30A200A3018A01BD
:1006A0000C21D4002508D5005208D407530803189C
:1006B000013ED50761085407D80055080318013ECC
:1006C000D9004808A0004908A10003308A01B520DC
:1006D000E5004808A0004908A10002308A01B520C1
:1006E000E4004808A0004908A10001308A01B520B3
:1006F000E3004808A0004908A10000308A01B520A5
:10070000E2004C08A0004D08A10001308A01B5208C
:10071000E1006508A600A7011030A2002730A30061
:100720008A010C21CE002508CF001030CE072730DB
:100730000318013ECF076408A600A701E830A20015
:100740000330A3008A010C21D0002508D1004E08F7
:10075000D0074F080318013ED1076308A600A70180
:100760006430A200A3018A010C21D2002508D30025
:100770005008D20751080318013ED3076208A600AB
:10078000A7010A30A200A3018A010C21D400250888
:10079000D5005208D40753080318013ED507610855
:1007A0005407DA0055080318013EDB004A08A00090
:1007B0004B08A10003308A01B520E5004A08A000DB
:1007C0004B08A10002308A01B520E4004A08A000CD
:1007D0004B08A10001308A01B520E3004A08A000BF
:1007E0004B08A10000308A01B520E2004C08A000AF
:1007F0004D08A10000308A01B520E1006508A6007F
:10080000A7011030A2002730A3008A010C21CE00DE
:100810002508CF001030CE0727300318013ECF0740
:100820006408A600A701E830A2000330A3008A01F3
:100830000C21D0002508D1004E08D0074F0803181E
:10084000013ED1076308A600A7016430A200A301FE
:100850008A010C21D2002508D3005008D207510884
:100860000318013ED3076208A600A7010A30A200C0
:10087000A3018A010C21D4002508D5005208D40711
:1008800053080318013ED50761085407DC005508DA
:100890000318013EDD000530B6000430B400073017
:1008A000B7000430B5000130B3005608A000570867
:1008B000A10010308A0164200530B6000430B40075
:1008C0000730B7000430B5000130B3005808A0006D
:1008D0005908A10010308A0164200530B6000430A8
:1008E000B4000730B7000430B5000130B3005A0837
:1008F000A0005B08A10010308A0164200530B6001A
:100900000430B4000730B7000430B5000130B30044
:100910005C08A0005D08A10010308A016420053049
:10092000B6002030B4000230B30055308A012020D8
:1009300055308A01202020308A0120204508A5005A
:1009400044088A0102202C308A01202020308A01AC
:1009500020204708A50046088A0102202C308A0181
:10096000202020308A0120204908A50048088A015B
:1009700002202C308A01202020308A0120204B08C0
:10098000A5004A088A0102202C308A01202020304C
:100990008A0120204D08A5004C088A0102200A3057
:1009A0008A0120208A015429DE01DF018A11F12405
:1009B0000130EC0064006C086D028A11031CEC2C01
:1009C0008A11F1244208DE0743080318013EDF07BD
:1009D000EC0A8A11031DDA2C5E08C2005F08C3000E
:1009E0000800C201C3019F1464008A119F1CFA2CE5
:1009F0008A01F42C1E08C30083161E088312C2004D
:100A00000800E6010301871AFF30CE000301071A30
:100A1000FF30D0004E08840050088A01E920D00041
:100A2000D1006400500851048A110319ED2D64307F
:100A30008A01A020871283168712323083128A011E
:100A4000A020071283160712323083128A01A020D9
:100A500003106B0DCE00CF01CF0D4E0AE800013020
:100A6000E7006400093067028A1103185B2D6400F7
:100A70008A11E81F402D8316871683128A11432D91
:100A800083168712831232308A01A020831607163C
:100A9000831264008A11071A4F2D8A01492D3230C2
:100AA0008A01A0208316071203108312E80DE70ABB
:100AB0008A11031D312D83160716831264008A11D3
:100AC000071A642D8A015E2D871A6814871E681024
:100AD00032308A01A0208316071264008A11831223
:100AE0006818D52DE901FE306A07CE00FF300318E3
:100AF000013ECF006908A000A1014F08A3004E08E5
:100B00008A01D6208A11031DAE2D32308A01A02021
:100B10008A11EE256908383E840068088000831633
:100B20008712183083128A01A020831607168312B9
:100B300064008A11071A9E2D8A01982D32308A018D
:100B4000A02083160712183083128A01A020831672
:100B500087168312E90A8A11031D732D18308A0142
:100B6000A0208A11EE25FF306A07CE00FF3003185F
:100B7000013ECF004E08383E84006808800083168E
:100B80008716183083128A01A02083160716831255
:100B900064008A11071ACE2D8A01C82D32308A01CD
:100BA000A020831607128312E61432308A01A02097
:100BB00083168712323083128A01A020831607160B
:100BC000831264008A11071AE72D8A01E12D323061
:100BD0008A01A02083168716831208000130E700DF
:100BE0006400093067028A110318122E0310E80D01
:100BF00083160716831264008A11071A012E8A01D0
:100C0000FB2D871A6814871E681032308A01A020D5
:100C100083160712323083128A01A020E70A8A1154
:060C2000031DF02D080089
:02400E00DC3F95
:00000001FF
