:020000040000FA
:10000000B2017F29B216B21EB212B2190B28B21574
:100010004420031832280830A3005820A20DA30B57
:100020000D28B21E3D2062205E20B21A32203720F9
:10003000220803107A29B216B21EB21232192528EC
:10004000FE39B300321503107A29321A2D28A60082
:10005000321644200318322826084B200318322871
:10006000B21E7A293D20622032113212B2113608B6
:100070008400340884178004432836088400340937
:100080008005841780050800372062203D205E200F
:100090003308B2190138A2000830A300A20D0318DA
:1000A0003720031C3D2062205E20A30B4E28372002
:1000B00062203608840034080005FF3E37088400BB
:1000C00035094028370884003508841780048413D4
:1000D0000005031964284328A501A400B31727309D
:1000E000A30010307F200330A300E8307F20A3015D
:1000F00064307F20A3010A307F2024088A28A200D0
:100100002508A1002408A00048212008031DB313DE
:10011000B31B0800303EA600360884000930A70053
:1001200003109720A60CA70B91280314972884137B
:10013000B31DA62800083404331D3406800084173C
:1001400000083404031C34068000B128000834047D
:10015000031C3406331934068000841734098005E3
:10016000B12800308A00330D0639A000BE20A1005E
:1001700000308A00200ABE2000000829C23E031871
:100180008A0A820001347134033411340034383463
:100190000C34D5340830A6003708840035083319EC
:1001A000F120331DF32036088400841734098005BC
:1001B000260803197A293318262136088400A10C51
:1001C000A00C00083404031C34068000EA20A60BAF
:1001D000DD287A293708840035088006000080066B
:1001E00008008004F628FF3A8005F728FF3A8417B4
:1001F00080057A29A301A200FF30A207031CA307F0
:10020000031C7A290330A100DF300821FC28A1015A
:10021000E83EA000A109FC30031C1129A007031827
:100220000E29A0076400A10F0E2920181729A01C71
:100230001B2900001B290800013EA7000A30A2006C
:10024000A3014821A70B212924080800A201A3012A
:100250002D29A10CA00CA20DA30DFF3E03182929E6
:100260002308A1002208A0007A29A200063038291C
:10027000A80023082102031D3F2922082002043080
:1002800003180130031902302805031DFF307A29B5
:10029000A501A4011030A600210DA40DA50D220872
:1002A000A4022308031C230FA50203185E292208B9
:1002B000A40723080318230FA5070310A00DA10D01
:1002C000A60B4C2920087A291030A800A101A00112
:1002D000A70CA60C031C72292208A00723080318E8
:1002E000230FA107A10CA00CA50CA40CA80B682936
:1002F00024087A29831303138312640008008316E9
:10030000851511130711051183121F1483161F176A
:100310009F121F1683121F139F171910991019117E
:100320008316051411148514911487159117051659
:1003300091150714111685128312851683168512DE
:10034000831207118316071183120330A300E830CC
:100350008A01FB200130D600851283168512831294
:1003600064008A11851DB92905308A01FA208A01A5
:10037000B02912308A01FA20C8308A01FA201030E0
:10038000ED001F129F111F1101308A01FA208A11FE
:10039000C5243808A0003908A1000430A200A30138
:1003A0008A014821BA002108BB001F129F111F15A6
:1003B00001308A01FA208A11C5243808A0003908C2
:1003C000A1000430A200A3018A014821BC00210839
:1003D000BD001F169F151F1501308A01FA208A11D2
:1003E000C5243808A0003908A1000430A200A301E8
:1003F0008A014821BE002108BF001F129F151F154A
:1004000001308A01FA208A11C5243808A000390871
:10041000A1000430A200A3018A014821C0002108E4
:10042000C1000730B6002030B4000730B7001030EC
:10043000B50006308A011D208A010420DC008A01F3
:100440000420E5008A010420DF008A010420E8007E
:100450008A010420DD008A010420E6008A010420CC
:10046000DE008A010220E700A6010130A7005D0836
:10047000A200A3018A016421C4002508C500660802
:100480004407C20045080318013EC300D60A3A08D3
:10049000D4003B08D5008A11F2245408BA0055084C
:1004A000BB003C08D4003D08D5008A11F224540852
:1004B000BC005508BD003E08D4003F08D5008A1195
:1004C000F2245408BE005508BF004008D40041087B
:1004D000D5008A11F2245408C0005508C1003A081A
:1004E000A0003B08A10003308A011C21DB003A0870
:1004F000A0003B08A10002308A011C21DA003A0862
:10050000A0003B08A10001308A011C21D9003A0853
:10051000A0003B08A10000308A011C21D80042083D
:10052000A0004308A10003308A011C21D7005B080A
:10053000A600A7011030A2002730A3008A01642181
:10054000C4002508C5001030C40727300318013E39
:10055000C5075A08A600A701E830A2000330A3008F
:100560008A016421C6002508C7004408C60745085B
:100570000318013EC7075908A600A7016430A2006E
:10058000A3018A016421C8002508C9004608C807DC
:1005900047080318013EC9075808A600A7010A30FA
:1005A000A200A3018A016421CA002508CB004808E3
:1005B000CA0749080318013ECB0757084A07CC0071
:1005C0004B080318013ECD003C08A0003D08A100E7
:1005D00003308A011C21DB003C08A0003D08A1007B
:1005E00002308A011C21DA003C08A0003D08A1006D
:1005F00001308A011C21D9003C08A0003D08A1005F
:1006000000308A011C21D8004208A0004308A10044
:1006100002308A011C21D7005B08A600A701103018
:10062000A2002730A3008A016421C4002508C50068
:100630001030C40727300318013EC5075A08A6002A
:10064000A701E830A2000330A3008A016421C6009C
:100650002508C7004408C60745080318013EC70718
:100660005908A600A7016430A200A3018A016421F1
:10067000C8002508C9004608C80747080318013EF6
:10068000C9075808A600A7010A30A200A3018A01E1
:100690006421CA002508CB004808CA074908031886
:1006A000013ECB0757084A07CE004B080318013E0E
:1006B000CF003E08A0003F08A10003308A011C21A2
:1006C000DB003E08A0003F08A10002308A011C2187
:1006D000DA003E08A0003F08A10001308A011C2179
:1006E000D9003E08A0003F08A10000308A011C216B
:1006F000D8004208A0004308A10001308A011C2153
:10070000D7005B08A600A7011030A2002730A30085
:100710008A016421C4002508C5001030C4072730B1
:100720000318013EC5075A08A600A701E830A20039
:100730000330A3008A016421C6002508C7004408CD
:10074000C60745080318013EC7075908A600A701B8
:100750006430A200A3018A016421C8002508C900F1
:100760004608C80747080318013EC9075808A600ED
:10077000A7010A30A200A3018A016421CA0025084A
:10078000CB004808CA0749080318013ECB075708A1
:100790004A07D0004B080318013ED1004008A000D2
:1007A0004108A10003308A011C21DB004008A000A1
:1007B0004108A10002308A011C21DA004008A00093
:1007C0004108A10001308A011C21D9004008A00085
:1007D0004108A10000308A011C21D8004208A00075
:1007E0004308A10000308A011C21D7005B08A60045
:1007F000A7011030A2002730A3008A016421C400A1
:100800002508C5001030C40727300318013EC5076E
:100810005A08A600A701E830A2000330A3008A010D
:100820006421C6002508C7004408C6074508031808
:10083000013EC7075908A600A7016430A200A30122
:100840008A016421C8002508C9004608C80747086E
:100850000318013EC9075808A600A7010A30A200E4
:10086000A3018A016421CA002508CB004808CA07F1
:1008700049080318013ECB0757084A07D2004B0826
:100880000318013ED3000530B6000430B400073031
:10089000B7000430B5000130B3004C08A0004D088B
:1008A000A10010308A01CB200530B6000430B4001E
:1008B0000730B7000430B5000130B3004E08A00087
:1008C0004F08A10010308A01CB200530B60004305B
:1008D000B4000730B7000430B5000130B300500851
:1008E000A0005108A10010308A01CB200530B600CD
:1008F0000430B4000730B7000430B5000130B30055
:100900005208A0005308A10010308A01CB20053006
:10091000B6002030B4000230B30055308A018B207D
:1009200055308A018B203B08A5003A088A016D20CA
:100930002C308A018B203B08A5003A088A016D20E3
:100940002C308A018B203D08A5003C088A016D20CF
:100950002C308A018B203F08A5003E088A016D20BB
:100960002C308A018B204108A50040088A016D20A7
:100970002C308A018B204308A50042088A016D2093
:100980000A308A018B208A01AC29D401D5018A1151
:10099000E2240130E400640064086D028A11031C43
:1009A000DD2C8A11E2243808D40739080318013EE7
:1009B000D507E40A8A11031DCB2C5408B80055084A
:1009C000B9000800B801B9019F1464008A119F1C86
:1009D000EB2C8A01E52C1E08B90083161E08831231
:1009E000B80008005408A0005508A1001030A3006A
:1009F00000308A0135218A11031D032D0310D50C07
:080A0000D40C8A01F22C08005D
:02400E00DC3F95
:00000001FF
