:020000040000FA
:020000002C28AA
:080008000800A301A200FF3073
:10001000A207031CA307031C27280330A100DF301D
:1000200013200728A101E83EA000A109FC30031C11
:100030001C28A00703181928A0076400A10F19287D
:1000400020182228A01C2628000026280800831338
:100050000313831264000800FF23831690009F019E
:100060008312073099008316851085150512051037
:10007000851005118312A930BA00FE30BB00203074
:10008000BE006430052083168510851283129011FE
:10009000901010151010101290123A088E003B08A4
:1000A0008F000C1010148B170B1783160C1483126F
:1000B0000B128B175E288B1B08007B285B200730F8
:1000C000BF005B202730C0005B202030C1005B20D8
:1000D000C2015B206400851D79285B200730BF00CA
:1000E0005B202730C0005B202030C1005B20C201B4
:1000F0005B205B20692810100E08B8000F08B900BB
:100100003A08B8073B080318013EB90738088E00C3
:1001100039088F00101403013D1C013E03193D10E6
:10012000031D3D1464003D1C9E283F0885003E08C9
:10013000BC00BC0B992840088500A6284108850012
:100140003E08BC00BC0BA228420885000C10090028
:060150005B206300A928FA
:02400E00943FDD
:00000001FF
